:100000000C9448000C947D000C947D000C947D00B1
:100010000C947D000C947D000C947D000C947D006C
:100020000C947D000C948F0E0C94380D0C945E0E85
:100030000C94CB0D0C94FC0D0C94070D0C949A0DA4
:100040000C940A0A0C947D000C94C3010C940902D0
:100050000C947D000C947D000C947D000C947D002C
:100060000C942D0E0C94530F0C94C00E0C94F10EA6
:100070000C94220F0C94690D0C9462020C94A8024B
:100080000C947D000C947D000C947D005004370589
:1000900011241FBECFEFD0E1DEBFCDBF88E483BF08
:1000A00083B7887F846083BF12BE87B7816087BFB4
:1000B000789411E0A0E0B1E0E6EDF5E200E00BBFDE
:1000C00002C007900D92AE3AB107D9F712E0AEEA3E
:1000D000B1E001C01D92A73AB107E1F710E0C0E915
:1000E000D0E004C02297FE010E94E512CC38D1076F
:1000F000C9F70E94840F0C94E9120C940000CF936E
:10010000DF93EC018A8160E00E94190B8D8160E031
:100110000E94490B8D8160E00E946B0B8B8161E036
:100120000E94190B8C8161E00E94190B00000000F5
:1001300010C08C8160E00E94190B000000000000DC
:1001400000008C8161E00E94190B0000000000009B
:1001500000008D810E94600B87FDEBCF8C8160E0F9
:100160000E94190BDF91CF910895FF920F931F9377
:100170008C01F62E0E947F00F801828161E00E94CE
:10018000190BF801838160E00E94190BF80184814A
:1001900061E00E94190BF801858161E00E94490B22
:1001A000F80185816F2D0E946B0B0000000000009C
:1001B0000000F801848160E00E94190BF80185813C
:1001C00060E00E94490BF80185816FEF0E946B0B84
:1001D0001F910F91FF900895EF92FF920F931F933D
:1001E000CF93DF937C01042F6115710551F0EB0172
:1001F00010E005C0C70169910E94B5001F5F10178C
:10020000C8F3DF91CF911F910F91FF90EF90089568
:10021000DF93CF930F92CDB7DEB76983BE016F5FD7
:100220007F4F41E00E94EC000F90CF91DF91089545
:10023000FF920F931F938C01F62E0E947F00F8010E
:10024000828160E00E94190BF801838160E00E94C6
:10025000190BF801848161E00E94190BF801858176
:1002600061E00E94490BF80185816F2D0E946B0BA4
:100270000000000000000000F801848160E00E949E
:10028000190BF801858160E00E94490BF801858116
:100290006FEF0E946B0B1F910F91FF9008954230FA
:1002A00031F0433031F0413029F4605C03C06C5EC2
:1002B00001C06C5A60680E941801089562E00E94B3
:1002C0001801089561E00E94180108950F931F938B
:1002D0008C01FC01828160E00E94190BF80183818E
:1002E00060E00E94190BF801848160E00E94190B04
:1002F000F801828161E00E94D00AF801838161E007
:100300000E94D00AF801848161E00E94D00AF801BD
:10031000858160E00E94490BF80185816FEF0E94A2
:100320006B0B1F910F9108950F931F938C010E94E7
:100330006601C80168E30E941801C80161E00E94DB
:100340001801C80166E00E941801C8016CE00E9413
:100350001801C80162E00E941801C80160E80E940B
:1003600018011F910F9108950F93FC018FE691E002
:10037000918380836283438324830583CF010E941A
:1003800094010F9108951F920F920FB60F920BB622
:100390000F9211242F933F938F939F93EF93FF938B
:1003A000E091F801F091F90120818091B2019091E2
:1003B000B30180970CF58091B2019091B301019641
:1003C0009093B3018093B2018091B4019091B501F3
:1003D000FC01E255FE4F228701969093B501809370
:1003E000B4012091B0013091B1018217930724F03C
:1003F0001092B5011092B401FF91EF919F918F91EE
:100400003F912F910F900BBE0F900FBE0F901F903A
:1004100018951F920F920FB60F920BB60F921124E0
:100420002F933F934F938F939F93AF93BF93EF93EC
:10043000FF938091DA019091DB011816190634F5CB
:10044000A091F801B091F9018091DA019091DB015E
:1004500001979093DB018093DA018091DE01909106
:10046000DF01FC01E255FE4F42A901969093DF01A6
:100470008093DE012091D8013091D9018217930732
:1004800024F01092DF011092DE014C938091DA018A
:100490009091DB01892B31F4E091F601F091F701A5
:1004A00088E98083FF91EF91BF91AF919F918F91E8
:1004B0004F913F912F910F900BBE0F900FBE0F9059
:1004C0001F9018951F920F920FB60F920BB60F92B6
:1004D00011242F933F938F939F93EF93FF93E0917A
:1004E0004402F091450220818091FE019091FF012C
:1004F00080970CF58091FE019091FF0101969093F9
:10050000FF018093FE018091000290910102FC01A5
:10051000E650FE4F228701969093010280930002DD
:100520002091FC013091FD018217930724F0109275
:10053000010210920002FF91EF919F918F913F91E4
:100540002F910F900BBE0F900FBE0F901F9018951C
:100550001F920F920FB60F920BB60F9211242F938A
:100560003F934F938F939F93AF93BF93EF93FF93DB
:1005700080912602909127021816190634F5A09151
:100580004402B09145028091260290912702019782
:10059000909327028093260280912A0290912B0249
:1005A000FC01E650FE4F42A9019690932B028093E6
:1005B0002A0220912402309125028217930724F009
:1005C00010922B0210922A024C9380912602909155
:1005D0002702892B31F4E0914202F091430288E92D
:1005E0008083FF91EF91BF91AF919F918F914F9138
:1005F0003F912F910F900BBE0F900FBE0F901F9049
:1006000018955F926F927F928F929F92AF92BF9256
:10061000CF92DF92EF92FF920F931F93CF93DF93CE
:10062000EC013A014B01413482E458078FE068073E
:1006300080E078070CF07FC060E874E88EE190E01D
:10064000A40193010E94B412215030404040504018
:10065000CA01B90122E030E040E050E00E94B4124B
:1006600059016A01A6019501209530954095509554
:1006700094E0220F331F441F551F9A95D1F760E075
:1006800074E284EF90E00E94B412CA01B9012FEF26
:1006900030E040E050E00E946012A40193010E940B
:1006A000B412C90181509F4F181619061CF4522E1E
:1006B0005A9403C055245394521A60E079E08DE3B4
:1006C00090E0A40193010E94B412215030404040B8
:1006D0005040CA01B90122E030E040E050E00E9401
:1006E000B412209530954095509583E0220F331F2A
:1006F000441F551F8A95D1F760E074E284EF90E0C3
:100700000E94B412CA01B9012FEF30E040E050E07E
:100710000E946012A40193010E94B412C901815089
:100720009F4F181619061CF4822F815002C081E0D9
:10073000821B8515E8F4CA5BDF4FE881F981C65456
:10074000D04082E0808360E079E08DE390E0A40116
:1007500093010E94B4122150304040405040CA01E1
:10076000B90122E030E040E050E00E94B41208C03D
:10077000CA5BDF4FE881F981C654D04010829501F1
:10078000CE5BDF4FE991F9913083E881F9812083D5
:100790002496E881F98188E98083DF91CF911F91C8
:1007A0000F91FF90EF90DF90CF90BF90AF909F9010
:1007B0008F907F906F905F900895FC012481358128
:1007C000C9010895DC01FC0184819581892B19F40C
:1007D0002FEF3FEF18C0FD0184819581019795832C
:1007E000848380859185E80FF91F42850196FD017C
:1007F00091878087228133818217930714F01186B5
:100800001086242F30E0C9010895CF93DF93DC01D7
:10081000EC018C819D81892B19F42FEF3FEF08C0EB
:10082000ED01E885F985EA0FFB1F8285282F30E06E
:10083000C901DF91CF910895FC0115821482848152
:10084000958191878087978386830895DC01FD01D8
:1008500084A595A54097DCF7F894FD0184A595A59E
:100860004097ACF484A595A5019695A784A786A585
:1008700097A5E80FF91F62AB0196FD0197A786A720
:1008800022A533A58217930714F017A616A6A85B16
:10089000BF4FED91FC9180818062808378940895B0
:1008A00065E771E07093AF016093AE0140E250E004
:1008B0005093B1014093B0011092B3011092B20174
:1008C0008091B2019091B3019093B7018093B601EA
:1008D0009093B5018093B40120E130E03093D901C9
:1008E0002093D8011092DB011092DA018091DA0195
:1008F0009091DB019093DF018093DE019093DD0105
:100900008093DC0180E990E09093F1018093F00105
:1009100089E290E09093F3018093F2018BE290E002
:100920009093F5018093F4018AE290E09093F701AF
:100930008093F6018CE290E09093F9018093F801A6
:100940007093FB016093FA015093FD014093FC0109
:100950001092FF011092FE018091FE019091FF0123
:10096000909303028093020290930102809300020D
:10097000309325022093240210922702109226021F
:10098000809126029091270290932B0280932A0255
:10099000909329028093280288E990E090933D0289
:1009A00080933C0289E990E090933F0280933E025D
:1009B0008BE990E090934102809340028AE990E0B5
:1009C00090934302809342028CE990E09093450219
:1009D0008093440208950F931F93CF93DF93EB010D
:1009E0008A01CC0FDD1F57FD0CC0FE01E158FE4F00
:1009F000808161E00E94190BC957DE4F8881B801E0
:100A00000EC0FE01E158FE4F808160E00E94190B8C
:100A1000C957DE4F66277727601B710B88810E94BC
:100A2000390CDF91CF911F910F9108951F93CF93B0
:100A3000DF93C0E0D0E0FE01E158FE4F1081812F2E
:100A400061E00E94D00A812F61E00E94190BFE0133
:100A5000E957FE4F808160E070E00E94390C2296D9
:100A6000C830D10541F7DF91CF911F9108950F93C1
:100A700086E492E06AE14BE12CE102E00E94B401DD
:100A80008CE492E00E9416058EE492E00E94080930
:100A900082E592E00E94080986E592E00E9408093A
:100AA00080913C0190913D0190936902809368028E
:100AB0000F9108958F929F92AF92BF92CF92DF9243
:100AC000EF92FF920F931F93CF93DF9380912201B8
:100AD0000E94760B4C01C0912601D0912701809194
:100AE00024010E94760B40E02091280130912901D9
:100AF000281739070CF441E0C815D905D4F4209122
:100B00003A0130913B01442329F010925D0210928A
:100B10005C0206C081E090E090935D0280935C02ED
:100B20003093630220936202309365022093640243
:100B3000A3C0442399F08FEF9FEF90935D028093C1
:100B40005C0280913A0190913B0190936302809303
:100B5000620290936502809364028EC0C0915E022F
:100B6000D0915F02D7FF42C08BEF9FEF90935D0261
:100B700080935C0260913A0170913B01882777FD78
:100B80008095982F0E9471115B016C01E0903601F5
:100B9000F0903701009138011091390160E070E068
:100BA00080E89FE3A80197010E9471109B01AC01AE
:100BB000C601B5010E94FD110E943E1170936302AF
:100BC00060936202C801B70120E030E040E85FE3D3
:100BD0000E9472109B01AC01C601B5010E94FD117B
:100BE0000E943E1170936502609364021C161D06FC
:100BF0000CF042C085E090E090935D0280935C022F
:100C000060913A0170913B01882777FD8095982F7C
:100C10000E9471115B016C01E0903601F090370188
:100C20000091380110913901C801B70120E030E08E
:100C300040E85FE30E9472109B01AC01C601B50160
:100C40000E94FD110E943E11709363026093620244
:100C500060E070E080E89FE3A80197010E947110B6
:100C60009B01AC01C601B5010E94FD110E943E111D
:100C7000709365026093640280905C0290905D02C4
:100C800080915E0290915F028815990581F09092A3
:100C90005F0280925E0280913401909135019093C1
:100CA0006102809360021092350110923401C0916C
:100CB0003401D09135012196D0933501C093340190
:100CC000CC34D1050CF441C085E088169104D9F4E8
:100CD000609168027091690282E592E00E940F09BA
:100CE00060912A0170912B018CE492E04FEF53E068
:100CF0000E94EB0460915A0270915B028CE492E0D6
:100D000041E05CEF1FC08BEF88168FEF9806E9F487
:100D1000609168027091690282E592E00E940F0979
:100D200060912A0170912B018CE492E041E05CEF2C
:100D30000E94EB0460915A0270915B028CE492E095
:100D40004FEF53E00E94EB049FC06091320170911D
:100D50003301882777FD8095982F0E9471117B01C0
:100D60008C0180915E0290915F02B401681B790B47
:100D7000882777FD8095982F0E9471119B01AC0107
:100D8000C801B7010E94FD117B018C0180916002B6
:100D900090916102C80FD91FBE01882777FD809509
:100DA000982F0E9471119B01AC01C801B7010E94EC
:100DB000D6100E943E117B018C0160913001709130
:100DC0003101882777FD8095982F0E9471115B0172
:100DD0006C01B401882777FD8095982F0E947111CE
:100DE0009B01AC01C601B5010E94FD110E943E119C
:100DF0006E0D7F1D709367026093660280913C01C7
:100E000090913D01860F971F90936902809368022D
:100E1000833991051CF082E990E004C08A9734F48C
:100E20008AE290E090936902809368026091680280
:100E30007091690282E592E00E940F0960912A0197
:100E400070912B0140916202509163028CE492E018
:100E50000E94EB0460915A0270915B02409164021F
:100E6000509165028CE492E00E94EB0486E492E0EB
:100E700060E040E00E944F0186E492E00E9462013F
:100E800086E492E00E945E0186E492E060E040E049
:100E90000E944F0186E492E00E94620186E492E0A3
:100EA0000E945E0186E492E060E071E00E94920F91
:100EB00086E492E062E071E00E94920F809122014C
:100EC0000E94760BBC0186E492E00E94691086E4E1
:100ED00092E062E071E00E94920F86E492E064E0AA
:100EE00071E00E94920F86E492E062E071E00E945D
:100EF000920F809124010E94760BBC0186E492E05F
:100F00000E94691086E492E060E041E00E944F0197
:100F100086E492E066E071E00E94920F86E492E03F
:100F200062E071E00E94920F609168027091690224
:100F300086E492E00E94691086E492E062E071E04B
:100F40000E94920F86E492E068E071E00E94920FA6
:100F500086E492E062E071E00E94920F60915C0290
:100F600070915D0286E492E00E946910DF91CF915A
:100F70001F910F91FF90EF90DF90CF90BF90AF90B7
:100F80009F908F90089560915A0270915B028CE45B
:100F900092E040E050E00E94EB0460912A017091E1
:100FA0002B018CE492E040E050E00E94EB0482E5EB
:100FB00092E06FE170E00E94C10960913C01709184
:100FC0003D0182E592E00E940F0980E060E00E940E
:100FD000490B81E060E00E94490B8EEA91E040E815
:100FE00055E260E070E00E94010362E370E080E09F
:100FF00090E00E94520A74C062E370E080E090E0EA
:101000000E94520A86E492E060E040E00E944F01B4
:1010100086E492E00E94620186E492E00E945E0112
:1010200086E492E06AE071E00E94920F86E492E02A
:1010300062E071E00E94920F609130017091310185
:1010400086E492E00E946910E0912C01F0912D015C
:10105000EE0FFF1FE157FE4F80810E94760B6AE082
:1010600070E00E947F12709331016093300186E43A
:1010700092E062E071E00E94920F86E492E060E00C
:1010800041E00E944F0186E492E06DE071E00E9431
:10109000920F86E492E062E071E00E94920F60910C
:1010A00032017091330186E492E00E946910E09170
:1010B0002E01F0912F01EE0FFF1FE157FE4F8081AF
:1010C0000E94760B6AE070E00E947F1270933301F9
:1010D0006093320182E30E94000B882309F497C0D9
:1010E00081E30E94000B882309F086CF62E370E061
:1010F00080E090E00E94520A83C062E370E080E0EA
:1011000090E00E94520A86E492E060E040E00E9493
:101110004F0186E492E00E94620186E492E00E9420
:101120005E0186E492E060E171E00E94920F86E445
:1011300092E062E071E00E94920FE0912E01F09146
:101140002F01EE0FFF1FE157FE4F80810E94760BAB
:10115000BC0186E492E00E946910E0912E01F091BA
:101160002F01EE0FFF1FE157FE4F80810E94760B8B
:1011700090933B0180933A0186E492E060E041E085
:101180000E944F0186E492E06BE171E00E94920FB1
:1011900086E492E062E071E00E94920FE0912C01FF
:1011A000F0912D01EE0FFF1FE157FE4F80810E944D
:1011B000760BBC0186E492E00E946910E0912C015C
:1011C000F0912D01EE0FFF1FE157FE4F80810E942D
:1011D000760B60E072E00E947F12882777FD809591
:1011E000982F0E947111609336017093370180939C
:1011F00038019093390182E30E94000B882339F073
:1012000081E30E94000B882309F4EFCE76CF089586
:10121000FC0110828AE090E0938382830895CF934B
:10122000DF93EC01882777FD8095982F0E9471113C
:1012300020E030E044E353E40E94D61020E030E0A8
:1012400040EF51E40E94FD1120E030E040E251E423
:101250000E9472100E944311CB016A30710510F494
:101260008AE090E08932910510F088E290E09B835B
:101270008A83DF91CF910895E0913E01E7FD15C08B
:10128000FF27E7FDF095EE0FFF1FE659FD4F019098
:10129000F081E02D818160E00E94190B06C02F5F74
:1012A00081919191892B69F00EC020913E012F5FB1
:1012B000E22FFF27E7FDF0952150EE0FFF1FE659C3
:1012C000FD4F273064F320933E01E0913E01FF275C
:1012D000E7FDF095EE0FFF1FE659FD4F0190F081FD
:1012E000E02D309761F48FEF80933E0124EF31E0E1
:1012F00080917B0290917C02281B390B12C0818166
:1013000061E00E94190BE0913E01FF27E7FDF09597
:10131000EE0FFF1FE659FD4F0190F081E02D228175
:10132000338183B5820F83BD80917B0290917C02D3
:10133000820F931F90937C0280937B02845F914085
:1013400020F010927C0210927B0208950E94DC0B28
:1013500087B78F7787BF85E00E94E50B89E06CE354
:1013600079E00E94EA0B83B58C5083BD87B7806813
:1013700087BF10927C0210927B028FEF80933E0118
:101380000895CF93DF93EC0180917A02893010F0B9
:1013900080E03DC06983862F61E00E94D00AE88129
:1013A000F0E0EE0FFF1FE659FD4F80819181C817D5
:1013B000D90761F140917A02442341F4EAE6F2E070
:1013C0001192119282E0EA37F807D1F7EAE6F2E0EB
:1013D00020E030E080819181892B61F4F901EE0FEA
:1013E000FF1FE659FD4FD183C08328834F5F409391
:1013F0007A0206C02F5F3F4F32962830310551F7F1
:1014000080917A02813011F40E94A60981E0DF9177
:10141000CF9108951F920F920FB60F9211242F9320
:101420003F938F939F93AF93BF938091810290914D
:101430008202A0918302B0918402309185020196CC
:10144000A11DB11D232F2D5F2D3720F02D570196A3
:10145000A11DB11D20938502809381029093820289
:10146000A0938302B093840280917D0290917E02CA
:10147000A0917F02B09180020196A11DB11D8093C1
:101480007D0290937E02A0937F02B0938002BF9171
:10149000AF919F918F913F912F910F900FBE0F9021
:1014A0001F901895AF92BF92CF92DF92EF92FF926A
:1014B0000F931F935B016C019FB7F89420917D02FD
:1014C00030917E0240917F025091800282B7E82ED7
:1014D000FF2400E010E006B600FE0AC08FEFE81619
:1014E000F1040105110521F02F5F3F4F4F4F5F4F72
:1014F0009FBFB42FA32F922F88278E0D9F1DA01F53
:10150000B11F12E0880F991FAA1FBB1F1A95D1F7B0
:10151000BC0138C09FB7F89420917D0230917E02C3
:1015200040917F025091800282B7E82EFF2400E0B4
:1015300010E006B600FE0AC08FEFE816F1040105C0
:10154000110521F02F5F3F4F4F4F5F4F9FBFB42FCB
:10155000A32F922F88278E0D9F1DA01FB11FE2E0A1
:10156000880F991FAA1FBB1FEA95D1F7861B970BFF
:10157000885E934078F20894A108B108C108D108A8
:1015800068517C4FA114B104C104D10419F61F9114
:101590000F91FF90EF90DF90CF90BF90AF900895A4
:1015A000E82FE695E695E695A82FB0E0613099F42E
:1015B0002FB7F894F0E0EE0FFF1FE35BFE4F0190B2
:1015C000F081E02D9081A770B070A156BE4F8C9134
:1015D000982B908313C02FB7F894F0E0EE0FFF1F05
:1015E000E35BFE4F0190F081E02D9081A770B07019
:1015F000A156BE4F8C918095892380832FBF08957B
:10160000A82FE82FE695E695E695F0E0EE0FFF1F90
:10161000E55AFE4F0190F081E02DE081B0E0A77027
:10162000B070A156BE4F8C91E82309F0E1E08E2FF7
:101630000895E82FE695E695E695A82FB0E061308D
:1016400099F42FB7F894F0E0EE0FFF1FE15CFE4F26
:101650000190F081E02D9081A770B070A156BE4F2F
:101660008C91982B908313C02FB7F894F0E0EE0F75
:10167000FF1FE15CFE4F0190F081E02D9081A7708B
:10168000B070A156BE4F8C918095892380832FBF67
:101690000895E82FF0E0613051F4EE0FFF1FE35B97
:1016A000FE4F0190F081E02D8FEF80830895EE0FC3
:1016B000FF1FE35BFE4F0190F081E02D1082089543
:1016C000E82FF0E0EE0FFF1FE55AFE4F0190F0818A
:1016D000E02D80810895E82FF0E0EE0FFF1FE15C20
:1016E000FE4F0190F081E02D60830895982F809146
:1016F0006901813051F4109261001092620080E41F
:1017000087B987EE86B91092690180916A019817AE
:1017100021F4349A349BFECF0DC090936A0187B1B7
:101720009770807E892B87B9349A349BFECF349A88
:10173000349BFECF24B135B1C9010895853031F411
:101740008FB580688FBD8FB58F7B0FC0843031F42B
:101750008FB580628FBD8FB58F7E07C0833039F41F
:101760008FB588608FBD8FB58B7F8FBD0895823018
:1017700049F480918B00806880938B0080918B006E
:101780008F7B0AC0813059F480918B0080628093F6
:101790008B0080918B008F7E80938B00089588232F
:1017A00051F480918B00886080938B0080918B0036
:1017B0008B7F80938B00089585B5887F826085BD7F
:1017C00014BC87B7806487BF089595B5987F982B20
:1017D00095BD0895803140F4E82FF0E0EE0FFF1F33
:1017E000E957FD4F718360830895893031F48FB5D7
:1017F00082608FBD8FB58E7F0AC08A3019F48FB595
:10180000826002C08FB58D7F8FBD8FB581608FBD27
:101810001BBC1ABC19BC18BC10927900109278003D
:101820000895893049F480918B00826080938B0009
:1018300080918B008E7F0EC08A3021F480918B00C6
:10184000826003C080918B008D7F80938B0080919C
:101850008B00816080938B0010928700109286002D
:1018600010928500109284001092830010928200E2
:101870000895FF920F931F93CF93DF93182FF62EA7
:10188000072F8D31B0F08F3111F413E014C08E3179
:1018900011F414E010C08D3109F4B1C0853211F497
:1018A00010E044C0843211F411E040C0833219F4D6
:1018B000A4C08330D8F18091860286FD12C08EB517
:1018C000887F83608EBD1DBC1CBC87B7846087BFCA
:1018D00078948AE00E94F50B809186028064809360
:1018E000860280918602C12FD0E090E0012E02C0D6
:1018F000959587950A94E2F780FD59C087B3FE015C
:10190000E955FE4F9081892B87BB812F0E949E0B4A
:101910002091860281E090E0012E02C0880F991F7D
:101920000A94E2F7282B2093860241C08091860218
:1019300087FD18C080918A00887F836080938A0029
:10194000109289001092880080917D0084608093BD
:101950007D0078948AE00E94110C80918602806854
:101960008093860280918602C12FD0E090E0012E04
:1019700002C0959587950A94E2F780FD22C082B156
:10198000FE01E955FE4F9081892B82B9812F0E947B
:101990009E0B2091860281E090E0012E02C0880F0C
:1019A000991F0A94E2F7282B209386020AC015306B
:1019B00019F40BBDFABC25C0143019F409BDF8BCEC
:1019C00020C0133029F400937900F092780019C0F8
:1019D000123029F400938700F092860012C0113073
:1019E00029F400938500F09284000BC0112349F480
:1019F00000938300F092820004C012E097CF15E0BC
:101A00005ACFDF91CF911F910F91FF9008951F92B0
:101A10000F920FB60F920BB60F9211242F933F9394
:101A20004F935F936F937F938F939F93AF93BF93E6
:101A3000EF93FF9380918D0290918E02892B29F074
:101A4000E0918D02F0918E020995FF91EF91BF9187
:101A5000AF919F918F917F916F915F914F913F9146
:101A60002F910F900BBE0F900FBE0F901F901895E7
:101A70001F920F920FB60F920BB60F9211242F9355
:101A80003F934F935F936F937F938F939F93AF9306
:101A9000BF93EF93FF938091970290919802892BC7
:101AA00029F0E0919702F09198020995FF91EF914A
:101AB000BF91AF919F918F917F916F915F914F9166
:101AC0003F912F910F900BBE0F900FBE0F901F9064
:101AD00018951F920F920FB60F920BB60F9211240A
:101AE0002F933F934F935F936F937F938F939F9326
:101AF000AF93BF93EF93FF9380919D0290919E02CD
:101B0000892B29F0E0919D02F0919E020995FF91A9
:101B1000EF91BF91AF919F918F917F916F915F9165
:101B20004F913F912F910F900BBE0F900FBE0F90D2
:101B30001F9018951F920F920FB60F920BB60F922F
:101B400011242F933F934F935F936F937F938F93C2
:101B50009F93AF93BF93EF93FF93809189029091EE
:101B60008A02892B29F0E0918902F0918A02099575
:101B7000FF91EF91BF91AF919F918F917F916F9165
:101B80005F914F913F912F910F900BBE0F900FBE21
:101B90000F901F9018951F920F920FB60F920BB6D1
:101BA0000F9211242F933F934F935F936F937F93E3
:101BB0008F939F93AF93BF93EF93FF9380918F0287
:101BC00090919002892B29F0E0918F02F091900280
:101BD0000995FF91EF91BF91AF919F918F917F9167
:101BE0006F915F914F913F912F910F900BBE0F908E
:101BF0000FBE0F901F9018951F920F920FB60F9265
:101C00000BB60F9211242F933F934F935F936F93D3
:101C10007F938F939F93AF93BF93EF93FF938091A5
:101C2000910290919202892B29F0E0919102F0911A
:101C300092020995FF91EF91BF91AF919F918F9182
:101C40007F916F915F914F913F912F910F900BBEBC
:101C50000F900FBE0F901F9018951F920F920FB606
:101C60000F920BB60F9211242F933F934F935F93D4
:101C70006F937F938F939F93AF93BF93EF93FF9354
:101C80008091930290919402892B29F0E091930224
:101C9000F09194020995FF91EF91BF91AF919F91BF
:101CA0008F917F916F915F914F913F912F910F9005
:101CB0000BBE0F900FBE0F901F9018951F920F92A2
:101CC0000FB60F920BB60F9211242F933F934F93A1
:101CD0005F936F937F938F939F93AF93BF93EF9394
:101CE000FF938091950290919602892B29F0E091C3
:101CF0009502F09196020995FF91EF91BF91AF91F6
:101D00009F918F917F916F915F914F913F912F9113
:101D10000F900BBE0F900FBE0F901F9018951F9243
:101D20000F920FB60F920BB60F9211242F933F9381
:101D30004F935F936F937F938F939F93AF93BF93D3
:101D4000EF93FF938091990290919A02892B29F049
:101D5000E0919902F0919A020995FF91EF91BF915C
:101D6000AF919F918F917F916F915F914F913F9133
:101D70002F910F900BBE0F900FBE0F901F901895D4
:101D80001F920F920FB60F920BB60F9211242F9342
:101D90003F934F935F936F937F938F939F93AF93F3
:101DA000BF93EF93FF9380919F029091A002892BA4
:101DB00029F0E0919F02F091A0020995FF91EF9127
:101DC000BF91AF919F918F917F916F915F914F9153
:101DD0003F912F910F900BBE0F900FBE0F901F9051
:101DE00018951F920F920FB60F920BB60F921124F7
:101DF0002F933F934F935F936F937F938F939F9313
:101E0000AF93BF93EF93FF938091A1029091A202B1
:101E1000892B29F0E091A102F091A2020995FF918E
:101E2000EF91BF91AF919F918F917F916F915F9152
:101E30004F913F912F910F900BBE0F900FBE0F90BF
:101E40001F9018951F920F920FB60F920BB60F921C
:101E500011242F933F934F935F936F937F938F93AF
:101E60009F93AF93BF93EF93FF938091A3029091C1
:101E7000A402892B29F0E091A302F091A402099514
:101E8000FF91EF91BF91AF919F918F917F916F9152
:101E90005F914F913F912F910F900BBE0F900FBE0E
:101EA0000F901F9018951F920F920FB60F920BB6BE
:101EB0000F9211242F933F934F935F936F937F93D0
:101EC0008F939F93AF93BF93EF93FF938091A5025E
:101ED0009091A602892B29F0E091A502F091A6022B
:101EE0000995FF91EF91BF91AF919F918F917F9154
:101EF0006F915F914F913F912F910F900BBE0F907B
:101F00000FBE0F901F90189583E061E00E94490B6F
:101F100084E061E00E94490B78940E94C3070E940C
:101F20005A05FDCF0F931F93CF93DF938C01EB01E5
:101F300009C02196D801ED91FC910190F081E02D2E
:101F4000C801099568816623A1F7DF91CF911F91A0
:101F50000F9108952F923F924F925F926F927F92CE
:101F60008F929F92AF92BF92CF92DF92EF92FF92A9
:101F70000F931F93DF93CF93CDB7DEB7A0970FB624
:101F8000F894DEBF0FBECDBF1C016A017B01411575
:101F900051056105710549F4DC01ED91FC91019059
:101FA000F081E02D60E3099554C088249924540100
:101FB000422E55246624772401E010E00C0F1D1FEB
:101FC000080D191DC701B601A30192010E949212CA
:101FD000F80160830894811C911CA11CB11CC701ED
:101FE000B601A30192010E949212C901DA016C01AB
:101FF0007D01C114D104E104F104F1F681E0E82E81
:10200000F12CEC0EFD1EE80CF91C3E010894611C3D
:10201000711CD501C4010197A109B1096C01C8184F
:10202000D90814C0F601EE0DFF1D60816A3010F46E
:10203000605D01C0695CD101ED91FC910190F0817E
:10204000E02DC10109950894E108F1086E147F04A0
:1020500049F7A0960FB6F894DEBF0FBECDBFCF9163
:10206000DF911F910F91FF90EF90DF90CF90BF9085
:10207000AF909F908F907F906F905F904F903F9028
:102080002F900895EF92FF920F931F93CF93DF93BA
:10209000EC017A018B0177FF0FC0E881F981019093
:1020A000F081E02D6DE2099510950095F094E09493
:1020B000E11CF11C011D111DCE01B801A7012AE090
:1020C0000E94AA0FDF91CF911F910F91FF90EF9087
:1020D0000895AB01662757FD6095762F0E94421048
:1020E00008955058BB27AA270ED04DC13ED130F0DD
:1020F00043D120F031F49F3F11F41EF433C10EF4AC
:10210000E095E7FB29C1E92F4FD180F3BA176207A9
:1021100073078407950718F071F49EF567C10EF4F4
:10212000E0950B2EBA2FA02D0B01B90190010C01E7
:10213000CA01A0011124FF27591B99F0593F50F4FF
:10214000503E68F11A16F040A22F232F342F442757
:10215000585FF3CF469537952795A795F04053954F
:10216000C9F77EF41F16BA0B620B730B840BBAF01F
:102170009150A1F0FF0FBB1F661F771F881FC2F78A
:102180000EC0BA0F621F731F841F48F4879577959E
:102190006795B795F7959E3F08F0B3CF9395880F55
:1021A00008F09927EE0F9795879508950CD0EBC00E
:1021B000E3D040F0DAD030F021F45F3F19F0CCC02A
:1021C000511115C1CFC0F0D098F39923C9F355230D
:1021D000B1F3951B550BBB27AA276217730784071A
:1021E00038F09F5F5F4F220F331F441FAA1FA9F3D0
:1021F00033D00E2E3AF0E0E830D091505040E695C2
:10220000001CCAF729D0FE2F27D0660F771F881F22
:10221000BB1F261737074807AB07B0E809F0BB0B11
:10222000802DBF01FF2793585F4F2AF09E3F510535
:1022300068F092C0DCC05F3FECF3983EDCF386951B
:1022400077956795B795F7959F5FC9F7880F911DAB
:102250009695879597F90895E1E0660F771F881F97
:10226000BB1F621773078407BA0720F0621B730B4A
:10227000840BBA0BEE1F88F7E095089504D068949C
:10228000B111B5C0089598D088F09F5790F0B92F3C
:102290009927B751A0F0D1F0660F771F881F991FBB
:1022A0001AF0BA95C9F712C0B13081F09FD0B1E0F1
:1022B00008959CC0672F782F8827B85F39F0B93F01
:1022C000CCF3869577956795B395D9F73EF49095BD
:1022D0008095709561957F4F8F4F9F4F0895E8943B
:1022E00009C097FB3EF490958095709561957F4F5E
:1022F0008F4F9F4F9923A9F0F92F96E9BB2793950C
:10230000F695879577956795B795F111F8CFFAF41B
:10231000BB0F11F460FF1BC06F5F7F4F8F4F9F4F4C
:1023200016C0882311F096E911C0772321F09EE8AA
:10233000872F762F05C0662371F096E8862F70E010
:1023400060E02AF09A95660F771F881FDAF7880FEA
:102350009695879597F9089597F99F6780E870E0BB
:1023600060E008959FEF80EC089500240A9416160B
:10237000170618060906089500240A941216130673
:10238000140605060895092E0394000C11F4882301
:1023900052F0BB0F40F4BF2B11F460FF04C06F5F1D
:1023A0007F4F8F4F9F4F089557FD9058440F551FF3
:1023B00059F05F3F71F04795880F97FB991F61F0C7
:1023C0009F3F79F087950895121613061406551F3E
:1023D000F2CF4695F1DF08C0161617061806991FAA
:1023E000F1CF86957105610508940895E894BB279F
:1023F00066277727CB0197F908950BD0C4CFB5DFB7
:1024000028F0BADF18F0952309F0A6CFABCF11243E
:10241000EECFCADFA0F3959FD1F3950F50E0551F83
:10242000629FF001729FBB27F00DB11D639FAA2729
:10243000F00DB11DAA1F649F6627B00DA11D661F78
:10244000829F2227B00DA11D621F739FB00DA11D99
:10245000621F839FA00D611D221F749F3327A00D53
:10246000611D231F849F600D211D822F762F6A2FEF
:1024700011249F5750408AF0E1F088234AF0EE0F74
:10248000FF1FBB1F661F771F881F91505040A9F781
:102490009E3F510570F060CFAACF5F3FECF3983EAE
:1024A000DCF3869577956795B795F795E7959F5FE8
:1024B000C1F7FE2B880F911D9695879597F9089582
:1024C000629FD001739FF001829FE00DF11D649F18
:1024D000E00DF11D929FF00D839FF00D749FF00DA4
:1024E000659FF00D9927729FB00DE11DF91F639F45
:1024F000B00DE11DF91FBD01CF011124089597FB17
:10250000092E07260AD077FD04D049D006D0002036
:102510001AF4709561957F4F0895F6F7909581951F
:102520009F4F0895A1E21A2EAA1BBB1BFD010DC0EF
:10253000AA1FBB1FEE1FFF1FA217B307E407F50773
:1025400020F0A21BB30BE40BF50B661F771F881F4F
:10255000991F1A9469F760957095809590959B01E5
:10256000AC01BD01CF01089597FB092E05260ED0C1
:1025700057FD04D0D7DF0AD0001C38F450954095A1
:10258000309521953F4F4F4F5F4F0895F6F7909547
:102590008095709561957F4F8F4F9F4F0895AA1B2F
:1025A000BB1B51E107C0AA1FBB1FA617B70710F03E
:1025B000A61BB70B881F991F5A95A9F78095909570
:1025C000BC01CD010895EE0FFF1F0590F491E02DA1
:0625D0000994F894FFCF0E
:1025D6004C0020005200410045006B50006B440047
:1025E6006D6F746F7253706565640041646A7573CC
:1025F600740003000200E5017800010006000700F0
:102606006400140001000000003F96005E00FF32E7
:102616000035003B003800230062006500310034BD
:10262600003A0037002200610064003000330039B0
:1026360000360021002000630001FF0000000008B2
:1026460001000000002604DD030504E2031C041853
:10265600001900260027000500040001000000FF05
:10266600FFFFFFFFFFFFFFFFFFFFFF060007000161
:0E267600020408102040802010088040200040
:00000001FF
